:100000000C9492000C94BA000C94BA000C94BA00B0
:100010000C94BA000C94BA000C94BA000C94BA0078
:100020000C94BA000C94BA000C94BA000C94BA0068
:100030000C94BA000C94BA000C94BA000C94BA0058
:100040000C9402060C94BA000C943A050C94140516
:100050000C94BA000C94BA000C94BA000C94BA0038
:100060000C94BA000C94BA0020202043757272657B
:100070006E743A2000202D3E2000202020566F6C08
:10008000746167653A200054797065206520746F4B
:1000900020657261736520686973746F72790054AA
:1000A000797065207020746F207072696E7420689A
:1000B0006973746F727900486973746F7279204341
:1000C0006C65617265640000000000250028002B4B
:1000D0000000000000240027002A00000000002388
:1000E000002600290004040404040404040202029B
:1000F0000202020303030303030102040810204069
:1001000080010204081020010204081020000000F1
:1001100008000201000003040700000000000000C6
:100120000000970D11241FBECFEFD8E0DEBFCDBF7A
:1001300011E0A0E0B1E0EEE3F1E202C005900D9223
:10014000A238B107D9F722E0A2E8B1E001C01D92C0
:10015000A535B207E1F710E0C2E9D0E004C021976D
:10016000FE010E948310C139D107C9F70E944C06D5
:100170000C949D100C9400003FB7F89480919D0161
:1001800090919E01A0919F01B091A00126B5A89BDE
:1001900005C02F3F19F00196A11DB11D3FBFBA2F19
:1001A000A92F982F8827820F911DA11DB11DBC0179
:1001B000CD0143E0660F771F881F991F4A95D1F73D
:1001C0000895009769F0FC0101900020E9F731974C
:1001D000AF01481B590BBC0181EA91E00C9400046B
:1001E00080E090E008958F929F92AF92BF920F931C
:1001F0001F93CF93DF93CDB7DEB7A1970FB6F894D7
:10020000DEBF0FBECDBF19A2423008F44AE08E0116
:100210000F5D1F4F842E912CA12CB12CA5019401B0
:100220000E944210E62FB901CA0101501109EA30BB
:1002300014F4E05D01C0E95CD801EC93232B242B7E
:10024000252B61F7C8010E94E100A1960FB6F89432
:10025000DEBF0FBECDBFDF91CF911F910F91BF9039
:10026000AF909F908F900895CF92DF92EF92FF9280
:10027000CF93DF936C01990FEE08FF08F7FE13C0D0
:100280006DE281EA91E00E949704EC0166277727EE
:10029000CB016C197D098E099F094AE00E94F30089
:1002A000C80FD91F06C04AE0C701B6010E94F3007B
:1002B000EC0180E591E00E94E1008C0F9D1FDF9131
:1002C000CF91FF90EF90DF90CF9008950F931F9301
:1002D000CF93DF938C01C0E0D0E0F801EC0FFD1F5D
:1002E0006491662341F081EA91E00E949704892B92
:1002F00011F02196F2CFCE01DF91CF911F910F9196
:100300000895CF93DF930E946601EC0180E591E0B0
:100310000E94E1008C0F9D1FDF91CF9108958330E3
:1003200081F028F4813099F08230A1F0089587306F
:10033000A9F08830B9F08430D1F4809180008F7DAD
:1003400003C0809180008F7780938000089584B5EA
:100350008F7702C084B58F7D84BD08958091B000F1
:100360008F7703C08091B0008F7D8093B000089597
:10037000CF93DF9390E0FC01E750FF4F2491FC0105
:10038000EB51FF4F8491882361F190E0880F991F12
:10039000FC01EF52FF4FC591D491FC01E953FF4F8F
:1003A000A591B491611109C09FB7F89488812095F7
:1003B00082238883EC912E230BC0623061F49FB7B7
:1003C000F8948881322F309583238883EC912E2BEB
:1003D0002C939FBF06C08FB7F894E8812E2B2883FB
:1003E0008FBFDF91CF9108950F931F93CF93DF932A
:1003F0000EE312E061E0F80181810E94B801C0E6DD
:10040000D0E0CE010197F1F760E0F80180810E9411
:10041000B801CE010197F1F760E0F80181810E94F7
:10042000B8012197F1F7DF91CF911F910F910895B6
:10043000EF92FF920F931F93CF93DF93C82F662302
:1004400061F080749C2F977028E0929F800D11249A
:10045000C873C695C695C695C80FD8E090E6E92E34
:10046000F12C61E080913E020E94B801C701019722
:10047000F1F7C0FF02C060E001C061E080913F027F
:100480000E94B80100E610E0C7010197F1F760E0B3
:1004900080913E020E94B801C7010197F1F7C6950D
:1004A000D150F9F661E080913E020E94B80160E00F
:1004B00080913F020E94B801C8010197F1F760E006
:1004C00080913E020E94B801C8010197F1F7209186
:1004D0003F0230E0F901E35FFE4F8491F901E750FC
:1004E000FF4F1491F901EB51FF4FC491CC2399F0C8
:1004F00081110E948F01EC2FF0E0EE0FFF1FE552FB
:10050000FF4FA591B491EC91E123C1E009F4C0E063
:10051000C11107C001C0C0E061E080913F020E94AC
:10052000B80100E610E0C8010197F1F761E08091A1
:100530003E020E94B801C8010197F1F78C2FDF91AC
:10054000CF911F910F91FF90EF90089561E08091FE
:100550003F020E94B80180E690E00197F1F708950C
:10056000CF93C82F0E94A6028C2F837060E0805426
:10057000CF910C941802CF92DF92EF92FF920F93DB
:100580001F93CF93DF938C010E94A60260E080E46A
:100590000E9418020E94F40180E00E94B002E8016B
:1005A00002E412E08EE3E82E82E0F82E6E018881EC
:1005B000F80181938F0180914102811106C09881D9
:1005C00080858923948160E007C0F6019381F7015B
:1005D00080898923948561E0892B0E9418022196E5
:1005E000F1E0CF1AD10881E0E81AF108E2E0063420
:1005F0001E07E9F6DF91CF911F910F91FF90EF90C9
:10060000DF90CF900C94F401BF92CF92DF92EF92E3
:10061000FF920F931F93CF93DF9300D000D0CDB7FD
:10062000DEB78C0184E3E82E81E0F82EFE013196DE
:1006300031E020E0BE2E4F2FD701DE90CE907D011D
:10064000C801B6010E942E106115710529F43323EB
:1006500091F0233091F40FC0DB01AE5DBE4F8C9161
:10066000C69ED001C79EB00DD69EB00D11240A1BA8
:100670001B0B30E003C08FE301C080E081932F5F4C
:100680002430D1F68B2D942F0E94BB020F900F9037
:100690000F900F90DF91CF911F910F91FF90EF90EE
:1006A000DF90CF90BF900895CF93C82F843029F466
:1006B00082E492E00E94BB0227C00E94A60260E092
:1006C00080E40E9418020E94F40180914102882374
:1006D00019F083E08C1B01C08C2F0E94B002809126
:1006E0004102EC2FF0E0E25CFD4F9481811105C0E6
:1006F00085858923918560E004C08585892391855E
:1007000061E0892B0E941802CF910C94F4010F93A1
:100710001F93CF93DF93CEE3D2E010E00FE78985FC
:10072000811103C08D858F3729F019860D87812FA0
:100730000E9454031F5F2196143089F7DF91CF91F7
:100740001F910F9108958E3008F08E50877080644D
:1007500080937C0080917A00806480937A008091FD
:100760007A0086FDFCCF809178002091790090E09E
:10077000922B08958F929F92AF92BF92CF92DF9269
:10078000EF92FF926B017C010E94BC004B015C0167
:10079000C114D104E104F104F1F00E94BC00DC01B9
:1007A000CB0188199909AA09BB09883E9340A10584
:1007B000B10570F321E0C21AD108E108F10888EE12
:1007C000880E83E0981EA11CB11CC114D104E10461
:1007D000F10419F7DDCFFF90EF90DF90CF90BF903D
:1007E000AF909F908F9008952FB7F89460919901E2
:1007F00070919A0180919B0190919C012FBF089567
:10080000CF92DF92EF92FF920F931F93CF93DF93DC
:100810006C017A018B01C0E0D0E0CE15DF0581F0DC
:10082000D8016D918D01D601ED91FC910190F0817F
:10083000E02DC6010995892B11F02196EECF7E019E
:10084000C701DF91CF911F910F91FF90EF90DF9043
:10085000CF900895089580E090E00895FC01538DB5
:10086000448D252F30E0842F90E0821B930B54178A
:1008700010F0CF96089501970895FC01918D828D17
:10088000981761F0828DDF01A80FB11D5D968C91E4
:10089000928D9F5F9F73928F90E008958FEF9FEFEF
:1008A0000895FC01918D828D981731F0828DE80FAB
:1008B000F11D858D90E008958FEF9FEF0895FC0165
:1008C000918D228D892F90E0805C9F4F821B910932
:1008D0008F739927089581EA91E00E945F0421E0D7
:1008E000892B09F420E0822F0895FC01848DDF011B
:1008F000A80FB11DA35ABF4F2C91848D90E0019693
:100900008F739927848FA689B7892C93A089B18981
:100910008C91837080648C93938D848D981306C022
:100920000288F389E02D80818F7D80830895EF9286
:10093000FF920F931F93CF93DF93EC0181E0888F99
:100940009B8D8C8D981305C0E889F989808185FD80
:1009500026C0F62E0B8D10E00F5F1F4F0F7311276F
:10096000E02E8C8DE8120CC00FB607FCFACFE88998
:10097000F989808185FFF5CFCE010E947504F1CF02
:100980008B8DFE01E80FF11DE35AFF4FF0829FB7F8
:10099000F8940B8FEA89FB89808180620AC09FB737
:1009A000F894EE89FF896083E889F98980818370F2
:1009B000806480839FBF81E090E0DF91CF911F91A1
:1009C0000F91FF90EF900895CF93DF93EC01888D06
:1009D0008823C9F0EA89FB89808185FD05C0A88943
:1009E000B9898C9186FD0FC00FB607FCF5CF8081C9
:1009F00085FFF2CFA889B9898C9185FFEDCFCE0113
:100A00000E947504E7CFDF91CF91089580E090E0D8
:100A1000892B29F00E946B0481110C940000089529
:100A20000E9498100C94E40D1F920F920FB60F9233
:100A300011242F933F934F935F936F937F938F93E3
:100A40009F93AF93BF93EF93FF9381EA91E00E944E
:100A50007504FF91EF91BF91AF919F918F917F911D
:100A60006F915F914F913F912F910F900FBE0F901B
:100A70001F9018951F920F920FB60F9211242F936B
:100A80008F939F93EF93FF93E091B101F091B201A7
:100A90008081E091B701F091B80182FD12C0908190
:100AA0008091BA018F5F8F732091BB01821751F043
:100AB000E091BA01F0E0EF55FE4F958F8093BA01B7
:100AC00001C08081FF91EF919F918F912F910F90A5
:100AD0000FBE0F901F9018950C94DC0DCF93DF93F1
:100AE000C0E0D0E0CE010E94DC0D81508E3F30F49A
:100AF000CC3F83E0D80761F12596F4CF60910101E6
:100B00006F5FCE010E94120560918301CE010196B4
:100B10000E94120560918201CE0102960E94120588
:100B20008091840190918501A0918601B091870107
:100B3000692F7A2F8B2F9927CE0103960E941205D9
:100B400060918401CE010496DF91CF910C9412053F
:100B5000DF91CF9108950F931F93CF9334990FC0D6
:100B60000E94F40300915002109151022091520210
:100B700030915302061717072807390758F0C0911C
:100B80004F02CC2329F0349924C002C010924F02A6
:100B9000C0E033C0C0914F02C11114C081E0809306
:100BA0004F020E94F403DC01CB0184549D4FAF4FF0
:100BB000BF4F8093500290935102A0935202B09382
:100BC00053021BC0C13021F782E080934F02C2E084
:100BD00014C00E94F403DC01CB018A569F4FAF4F33
:100BE000BF4F8093500290935102A0935202B09352
:100BF0005302C13059F610924F028C2FCF911F91A2
:100C00000F9108951F920F920FB60F9211242F93F8
:100C10003F938F939F93AF93BF938091990190914E
:100C20009A01A0919B01B0919C013091540226E061
:100C3000230F2D3720F40296A11DB11D05C029E810
:100C4000230F0396A11DB11D209354028093990197
:100C500090939A01A0939B01B0939C0180919D0178
:100C600090919E01A0919F01B091A0010196A11DBC
:100C7000B11D80939D0190939E01A0939F01B0931D
:100C8000A001BF91AF919F918F913F912F910F90B4
:100C90000FBE0F901F901895CF93DF93CDB7DEB79F
:100CA000AC970FB6F894DEBF0FBECDBF789484B575
:100CB000826084BD84B5816084BD85B5826085BD58
:100CC00085B5816085BD80916E00816080936E00E6
:100CD00010928100809181008260809381008091D8
:100CE0008100816080938100809180008160809389
:100CF00080008091B10084608093B1008091B00049
:100D000081608093B00080917A00846080937A0043
:100D100080917A00826080937A0080917A008E7F41
:100D200080937A0080917A00806880937A00109294
:100D3000C10061E088E00E94B801E5E1F1E0849142
:100D4000E1E0F1E00491EDEEF0E01491112391F077
:100D500081110E948F01E12FF0E0EE0FFF1FE95398
:100D6000FF4FA591B4919FB7F8948C9100950823FB
:100D70000C939FBF60E085E00E94B80162E082E0D2
:100D80000E94B80162E083E10E94B80162E082E162
:100D90000E94B80160E08FE00E94B80160E08EE040
:100DA0000E94B80160E080E10E94B80180E10E94E9
:100DB000A30324E1AC01249FC001259F900D1124C1
:100DC000909389018093880162E081E10E94B801DB
:100DD00086E191E00E94BB028FE0809340020E9476
:100DE000A602809140028F7060E080580E94180235
:100DF0000E94F40181E08093410284E00E94540348
:100E000080910101806880930101E091B101F0912E
:100E1000B20182E08083E091AD01F091AE011082D9
:100E2000E091AF01F091B00187E680831092B901A3
:100E3000E091B501F091B60186E08083E091B301C5
:100E4000F091B401808180618083E091B301F091E1
:100E5000B401808188608083E091B301F091B40196
:100E6000808180688083E091B301F091B40180813A
:100E70008F7D808386E491E00E94E10080E591E02F
:100E80000E94E1008091020190910301A091040170
:100E9000B09105018F8B988FA98FBA8F8091060131
:100EA00090910701A0910801B09109018B8F9C8F4F
:100EB000AD8FBE8F80910A0190910B01A0910C0122
:100EC000B0910D018F8F98A3A9A3BAA380910E01B1
:100ED00090910F01A0911001B09111018BA39CA3DF
:100EE000ADA3BEA38090120190901301B0901401A5
:100EF000A09015018FA298A6B9A6AAA68BA69CA61B
:100F00002B2C3A2C8F89988DA98DBA8D8D879E8731
:100F1000AF87B88B8B8D9C8DAD8DBE8D89879A8761
:100F2000AB87BC878F8D98A1A9A1BAA18D839E8321
:100F3000AF83B8878BA19CA1ADA1BEA189839A8301
:100F4000AB83BC831091010180918F018117C9F09F
:100F50000E94870383E080938E010E94F403DC01EA
:100F6000CB010197A109B10980938A0190938B016C
:100F7000A0938C01B0938D011F7710930101109302
:100F80008F010E94F40300918A0110918B0120913E
:100F90008C0130918D01061717072807390708F0D3
:100FA0007FC080918E0190E0019683709927809395
:100FB0008E01009759F50E94F403DC01CB0188549F
:100FC000944FAF4FBF4F80938A0190938B01A093B2
:100FD0008C01B0938D0183E00E9454038091010144
:100FE000813061F040F0823071F0833009F058C0F8
:100FF000CE01019605C0CE010D9602C0CE01099624
:101000000E94BB024DC0CE010596FACF80FF17C0EB
:1010100081E991E00E94BB020E9487030E94F403D1
:10102000DC01CB0186509F4FAF4FBF4F80938A01A9
:1010300090938B01A0938C01B0938D0131C08CE112
:1010400080934A028CE980934E0283E00E9454030D
:101050000E94F403DC01CB0188519C4FAF4FBF4F7E
:1010600080938A0190938B01A0938C01B0938D01A2
:1010700080E10E94A30324E1DC012A9FC0012B9F91
:10108000900D11242091880130918901820F931FC6
:101090009695879590938901809388010E94040317
:1010A00086B1E9B185FB882780F98D8B1E8AE470B3
:1010B000F0E0F595E7954D895E89E42BF52BE65E2A
:1010C000FE4F20818091900190E0E22FF0E0AF018F
:1010D0004F5F5F4F437055278417950741F4209366
:1010E000900181E0213009F080E081950EC00196E9
:1010F00064E070E00E942E1020939001E817F90739
:1011000019F481E0223009F080E090910101890F0B
:101110008F3F19F41092010105C0843009F483E077
:10112000809301010E94AB05082F10910101153039
:1011300008F053C0882309F465C01D821E821F82F7
:1011400018860E9487038EE00E94A303880F991FD0
:10115000880F991F69E070E00E942E10CB010E9459
:1011600004036AEF70E080E090E00E94BA031092FE
:1011700083011092820161E085E00E94B8010E9423
:10118000F4036B017C0154EFC50E51E0D51EE11C48
:10119000F11C0E94F4036C157D058E059F0568F413
:1011A0008EE00E94A30397FD079623E0959587950F
:1011B0002A95E1F70E940403ECCF8AE0782E8EE0B6
:1011C0000E94A30320918201309183012F5F3F4F42
:1011D000281739070CF4F8C169C08FEF809300011C
:1011E0000E94AB05882321F060E085E00E94B801F1
:1011F0000E94F40360939501709396018093970188
:101200009093980181EA91E00E945F04892B99F103
:1012100081EA91E00E943D04803759F400E010E03B
:10122000C8010E946C059FEF980F9E3F08F432C3DF
:101230001EC08536A1F400E010E0C8010E94DC0D5C
:10124000882321F060E0C8010E94E40D0F5F1F4F6A
:10125000011594E0190789F787EB90E006C08FE944
:1012600090E00E94810187E890E00E94810180E582
:1012700091E00E94E1000E94060544CE8EE00E94AB
:10128000A30397FD0796B3E095958795BA95E1F787
:101290000E9404030E94F4036C157D058E059F05D2
:1012A00068F3349BEBCF7A94711089CF023009F048
:1012B000F7C0CE0105960E94BB02113009F425C08B
:1012C00008F420C0123009F423C0133009F039C0EB
:1012D00015B9000000000000000000000000000040
:1012E00000000000000000000000000000000000FE
:1012F00000000000000000000000000000000000EE
:10130000000019C083E085B91AC083E085B913C015
:1013100083E085B90000000000000000000000002C
:1013200000000000000000000000000000000000BD
:10133000000015B906C00000000000000000000019
:1013400005B982E085B962E370E080E090E00E9438
:10135000BA038EE00E94A303092E000CAA0BBB0B5C
:101360008093840190938501A0938601B0938701B7
:1013700060E085E00E94B8010E946E054090840103
:10138000509085016090860170908701C090820125
:10139000D09083010D2C000CEE08FF08D301C20190
:1013A0008C199D09AE09BF09BC01CD01A3E096953A
:1013B000879577956795AA95D1F70E94050F23E346
:1013C00033E343E550E40E94BC0F9B01AC010E9453
:1013D000F30D698B7A8B8B8B9C8B8FA1898398A55E
:1013E0009A83A9A5AB83BAA5BC8310910101E1E062
:1013F000F0E0EC0FFD1FE10FF11D608170E080E077
:1014000090E00E94070F9B01AC0169897A898B8962
:101410009C890E94640E20E030E048EC52E40E9477
:10142000BC0F698B7A8B8B8B9C8BA0E1B7E2A301FD
:1014300092010E946410A70196010E944210690166
:101440007A01209384013093850140938601509363
:1014500087011092490210924D0282E00E945403CB
:1014600083E780934A0280934E0283E00E945403F4
:10147000C6010E9404030E94F4036B017C0128EE64
:10148000C20E23E0D21EE11CF11C0E94F4036C1575
:101490007D058E059F0508F0ABC03499F6CFA8C036
:1014A000013009F0AFCE81E991E00E94BB0211301A
:1014B00071F028F0123099F01330C9F03EC086B1B7
:1014C0008871E9F7349B36C083E085B933C086B1B3
:1014D0008871E9F7349B2AC083E085B927C086B1BB
:1014E0008871E9F7349B18C083E085B915C086B1CF
:1014F0008871E9F7349B02C083E085B900000000E1
:1015000000000000000000000000000000000000DB
:1015100000000000000000000000000000000000CB
:1015200000000000000000000000000000000000BB
:1015300000000000000082E085B982E085B962E326
:1015400070E080E090E00E94BA038EE00E94A30366
:10155000092E000CAA0BBB0B80938401909385018C
:10156000A0938601B093870160E085E00E94B801F6
:10157000349B20C00E946E050E94F4036B017C0125
:1015800048EBC40E4BE0D41EE11CF11C0E94F40396
:101590006C157D058E059F0508F093C03499F6CF34
:1015A00090C0349B07C00E94F4036C157D058E0526
:1015B0009F05B8F380910101806880930101339BFE
:1015C000FECF349BFCCF1ECE0E94AB058EE00E9466
:1015D000A30390938301809382010E94F4036B0123
:1015E0007C01A4EFCA0EA1E0DA1EE11CF11C52CE70
:1015F000CE0105960E94BB020E9487030E94F4035D
:101600006B017C01BAEFCB0ED11CE11CF11C0E94D6
:10161000F4036C157D058E059F0510F43499F7CF02
:1016200069897A898B899C890E94D60E6B017C011D
:101630006093840170938501809386019093870164
:101640001092490210924D0282E00E94540387E7F3
:1016500080934A0280934E0283E00E945403C601A5
:101660000E9404030E94F4036B017C0128EEC20E69
:1016700023E0D21EE11CF11C0E94F4036C157D05D1
:101680008E059F0510F43499F7CFCE0105960E9480
:10169000BB020E9487030E94F4036B017C014AEFA6
:1016A000C40ED11CE11CF11C0E94F4036C157D05D5
:1016B0008E059F0510F43499F7CF1068109301013F
:1016C000A1CD40908401509085016090860170907A
:1016D0008701C0908201D09083010D2C000CEE0890
:1016E000FF08D301C2018C199D09AE09BF09BC01D5
:1016F000CD0123E096958795779567952A95D1F743
:101700000E94050F23E333E343E550E40E94BC0F3E
:101710009B01AC010E94F30D698B7A8B8B8B9C8BA8
:1017200089829A82BB82AC8280910101E1E0F0E083
:10173000EC0FFD1FE80FF11D608170E080E090E08C
:101740000E94070F9B01AC0169897A898B899C896A
:101750000E94640E20E030E048EC52E40E94BC0F8E
:10176000698B7A8B8B8B9C8BA0E1B7E2A3019201F2
:101770000E946410A70196010E94421069017A013B
:101780002093840130938501409386015093870113
:101790001092490210924D0282E00E94540383E7A6
:1017A00080934A0280934E0283E00E945403C60154
:1017B0000E9404030E94F4036B017C0158EEC50EE5
:1017C00053E0D51EE11CF11C0E94F4036C157D054D
:1017D0008E059F0510F43499F7CFCE0105960E942F
:1017E000BB020E9487030E94F4036B017C01AAEFF5
:1017F000CA0ED11CE11CF11C0E94F4036C157D057E
:101800008E059F0510F43499F7CF69897A898B8901
:101810009C890E94D60E6B017C01609384017093B9
:10182000850180938601909387011092490210925E
:101830004D0282E00E94540387E780934A0280931E
:101840004E0283E00E945403C6010E9404030E94DA
:10185000F4036B017C01B8EECB0EB3E0DB1EE11CA0
:10186000F11C0E94F4036C157D058E059F0510F494
:101870003499F7CFCE0105960E94BB020E948703E0
:101880000E94F4036B017C012AEFC20ED11CE11C03
:10189000F11C89CE823019F48AE591E007C08330CB
:1018A00008F03AC1813021F483E591E00E94E10023
:1018B0008FE691E00E94E10080E591E00E94E10066
:1018C0008AE790E00E946601C80101960E946C05BB
:1018D000C82ED12CDC2CCC24C80102960E946C05A9
:1018E000C80ED11C43E0D694C7944A95E1F7E12C89
:1018F000F12CC701B6010E94050F2B013C014AE003
:10190000C701B6010E94F30085E790E00E946601DE
:10191000C80103960E946C05E82EF12CFE2CEE24E3
:10192000C80104960E946C05E80EF11CB701E3E0C3
:1019300076956795EA95E1F780E090E04AE00E94AD
:10194000F30088E690E00E946601B701F6E0769524
:101950006795FA95E1F780E090E00E94050F9B0102
:10196000AC01C301B2010E94F20D23E333E343E56E
:1019700050E40E94640E6B017C015BA559838CA529
:101980008A832B823C82C8010E946C05782EA701B5
:101990009601C701B6010E94F30D6B017C01FE01A7
:1019A000E70DF11D608170E080E090E00E94070F7C
:1019B0009B01AC01C701B6010E94640E6B017C0162
:1019C0002B013C019B01AC010E942910882319F0D6
:1019D00086E791E01FC0D701C601BF77898B9A8B3C
:1019E000AB8BBC8B2FEF3FEF4FE75FE7BC01CD0127
:1019F0000E942910811111C02FEF3FEF4FE75FE7E1
:101A000069897A898B899C890E945F0E18162CF44B
:101A10008AE791E00E94E10078C02FEF3FEF4FE7A7
:101A20005FE4C701B6010E94B70F18161CF48EE7D9
:101A300091E0F0CF2FEF3FEF4FE75FECC701B6012A
:101A40000E945F0E87FDF3CF20E030E0A901C701BF
:101A5000B6010E945F0E87FF0BC06DE281EA91E044
:101A60000E9497042601370177FA709477F87094F2
:101A70002AE037ED43EA5BE3C301B2010E94F30DB4
:101A80002B013C010E94D60E6B017C010E94050FC8
:101A90009B01AC01C301B2010E94F20D2B013C017C
:101AA0004AE0C701B6010E94F3006EE281EA91E0CC
:101AB0000E94970420E030E040E251E4C301B2010B
:101AC0000E94BC0F2B013C010E94D60E6B01E12C41
:101AD000F12C4AE0C701B6010E94F300C701B6012C
:101AE0000E94050F9B01AC01C301B2010E94F20DDF
:101AF00020E030E040E251E40E94BC0F0E94D60E8C
:101B000080E090E04AE00E94F30080E591E00E94CE
:101B1000E1000B5F1F4F84CB833019F481E691E025
:101B2000C5CE843009F0C4CE88E691E0BFCEE1EAAC
:101B3000F1E01382128288EE93E0A0E0B0E08483AB
:101B40009583A683B78388E391E09183808385ECB6
:101B500090E09587848784EC90E09787868780EC77
:101B600090E0918B808B81EC90E0938B828B82EC68
:101B700090E0958B848B86EC90E0978B868B118E12
:101B8000128E138E148EEEE3F2E08FE080871186C2
:101B900012861386148680911E0190911F01A091D8
:101BA0002001B091210185879687A787B08B83E0BC
:101BB000808384E081830895F999FECF92BD81BD31
:101BC000F89A992780B50895262FF999FECF1FBA64
:101BD00092BD81BD20BD0FB6F894FA9AF99A0FBE56
:101BE000019608955058BB27AA270E940A0E0C940C
:101BF0007D0F0E946F0F38F00E94760F20F039F4AD
:101C00009F3F19F426F40C946C0F0EF4E095E7FB5B
:101C10000C94660FE92F0E948E0F58F3BA176207D3
:101C200073078407950720F079F4A6F50C94B00F9C
:101C30000EF4E0950B2EBA2FA02D0B01B9019001E7
:101C40000C01CA01A0011124FF27591B99F0593F2B
:101C500050F4503E68F11A16F040A22F232F342F73
:101C60004427585FF3CF469537952795A795F040C1
:101C70005395C9F77EF41F16BA0B620B730B840BD6
:101C8000BAF09150A1F0FF0FBB1F661F771F881F8E
:101C9000C2F70EC0BA0F621F731F841F48F48795E6
:101CA00077956795B795F7959E3F08F0B0CF9395D8
:101CB000880F08F09927EE0F9795879508950E9451
:101CC000420F08F481E008950E94780E0C947D0F75
:101CD0000E94760F58F00E946F0F40F029F45F3F8A
:101CE00029F00C94660F51110C94B10F0C946C0FE9
:101CF0000E948E0F68F39923B1F3552391F3951B3E
:101D0000550BBB27AA2762177307840738F09F5F1C
:101D10005F4F220F331F441FAA1FA9F335D00E2E89
:101D20003AF0E0E832D091505040E695001CCAF7F6
:101D30002BD0FE2F29D0660F771F881FBB1F2617B9
:101D400037074807AB07B0E809F0BB0B802DBF0190
:101D5000FF2793585F4F3AF09E3F510578F00C945F
:101D6000660F0C94B10F5F3FE4F3983ED4F3869571
:101D700077956795B795F7959F5FC9F7880F911D80
:101D80009695879597F90895E1E0660F771F881F6C
:101D9000BB1F621773078407BA0720F0621B730B1F
:101DA000840BBA0BEE1F88F7E09508950E94960FFA
:101DB00088F09F5798F0B92F9927B751B0F0E1F00C
:101DC000660F771F881F991F1AF0BA95C9F714C0BC
:101DD000B13091F00E94B00FB1E008950C94B00FB3
:101DE000672F782F8827B85F39F0B93FCCF38695F5
:101DF00077956795B395D9F73EF490958095709552
:101E000061957F4F8F4F9F4F0895E89409C097FBCE
:101E10003EF490958095709561957F4F8F4F9F4FC1
:101E20009923A9F0F92F96E9BB279395F695879505
:101E300077956795B795F111F8CFFAF4BB0F11F4C8
:101E400060FF1BC06F5F7F4F8F4F9F4F16C088236F
:101E500011F096E911C0772321F09EE8872F762FA5
:101E600005C0662371F096E8862F70E060E02AF0E6
:101E70009A95660F771F881FDAF7880F96958795D2
:101E800097F90895990F0008550FAA0BE0E8FEEFA7
:101E900016161706E807F907C0F012161306E4072E
:101EA000F50798F0621B730B840B950B39F40A2627
:101EB00061F0232B242B252B21F408950A2609F405
:101EC000A140A6958FEF811D811D089597F99F6709
:101ED00080E870E060E008959FEF80EC08950024B2
:101EE0000A941616170618060906089500240A947F
:101EF00012161306140605060895092E0394000C05
:101F000011F4882352F0BB0F40F4BF2B11F460FF93
:101F100004C06F5F7F4F8F4F9F4F089557FD9058BC
:101F2000440F551F59F05F3F71F04795880F97FB9D
:101F3000991F61F09F3F79F0879508951216130657
:101F40001406551FF2CF4695F1DF08C01616170686
:101F50001806991FF1CF86957105610508940895BB
:101F6000E894BB2766277727CB0197F908950E944D
:101F7000420F08F48FEF08950E94CF0F0C947D0F4D
:101F80000E946F0F38F00E94760F20F0952311F019
:101F90000C94660F0C946C0F11240C94B10F0E94DA
:101FA0008E0F70F3959FC1F3950F50E0551F629F00
:101FB000F001729FBB27F00DB11D639FAA27F00DA2
:101FC000B11DAA1F649F6627B00DA11D661F829FC9
:101FD0002227B00DA11D621F739FB00DA11D621FAE
:101FE000839FA00D611D221F749F3327A00D611DCB
:101FF000231F849F600D211D822F762F6A2F1124AD
:102000009F5750409AF0F1F088234AF0EE0FFF1FDF
:10201000BB1F661F771F881F91505040A9F79E3F36
:10202000510580F00C94660F0C94B10F5F3FE4F300
:10203000983ED4F3869577956795B795F795E7958C
:102040009F5FC1F7FE2B880F911D9695879597F995
:1020500008950E94420F880B990B089597FB072E55
:1020600016F4009407D077FD09D00E946F1007FC8A
:1020700005D03EF4909581959F4F08957095619598
:102080007F4F0895A1E21A2EAA1BBB1BFD010DC0B4
:10209000AA1FBB1FEE1FFF1FA217B307E407F50718
:1020A00020F0A21BB30BE40BF50B661F771F881FF4
:1020B000991F1A9469F760957095809590959B018A
:1020C000AC01BD01CF0108950E948910A59F900D1C
:1020D000B49F900DA49F800D911D11240895AA1BFB
:1020E000BB1B51E107C0AA1FBB1FA617B70710F003
:1020F000A61BB70B881F991F5A95A9F78095909535
:10210000BC01CD010895EE0FFF1F0590F491E02D65
:102110000994A29FB001B39FC001A39F700D811DC0
:102120001124911DB29F700D811D1124911D0895E0
:0E21300081E090E0F8940C949D10F894FFCF9D
:10213E00FE013F6D3E2D06003E2D5B003E2D6600DE
:10214E003E2D01020408FF00FF0002030100FFFF05
:10215E00FFFF3F065B4F666D7D077F6F01000A0034
:10216E006400E80300000000970400042E04E40459
:10217E005F043D0451045241592052656164790057
:10218E000D0A00302E3520757300312E30207573F8
:10219E0000322E3020757300342E302075730020DF
:1021AE00466C617368006E616E00696E66006F76D4
:0221BE006600B9
:00000001FF
